{
  "_format": "hh-sol-artifact-1",
  "contractName": "SecurityUSDT",
  "sourceName": "contracts/SecurityUSDT.sol",
  "abi": [
    {
      "inputs": [
        {
          "internalType": "address",
          "name": "trustedForwarder",
          "type": "address"
        }
      ],
      "stateMutability": "nonpayable",
      "type": "constructor"
    },
    {
      "inputs": [],
      "name": "ECDSAInvalidSignature",
      "type": "error"
    },
    {
      "inputs": [
        {
          "internalType": "uint256",
          "name": "length",
          "type": "uint256"
        }
      ],
      "name": "ECDSAInvalidSignatureLength",
      "type": "error"
    },
    {
      "inputs": [
        {
          "internalType": "bytes32",
          "name": "s",
          "type": "bytes32"
        }
      ],
      "name": "ECDSAInvalidSignatureS",
      "type": "error"
    },
    {
      "inputs": [
        {
          "internalType": "address",
          "name": "spender",
          "type": "address"
        },
        {
          "internalType": "uint256",
          "name": "allowance",
          "type": "uint256"
        },
        {
          "internalType": "uint256",
          "name": "needed",
          "type": "uint256"
        }
      ],
      "name": "ERC20InsufficientAllowance",
      "type": "error"
    },
    {
      "inputs": [
        {
          "internalType": "address",
          "name": "sender",
          "type": "address"
        },
        {
          "internalType": "uint256",
          "name": "balance",
          "type": "uint256"
        },
        {
          "internalType": "uint256",
          "name": "needed",
          "type": "uint256"
        }
      ],
      "name": "ERC20InsufficientBalance",
      "type": "error"
    },
    {
      "inputs": [
        {
          "internalType": "address",
          "name": "approver",
          "type": "address"
        }
      ],
      "name": "ERC20InvalidApprover",
      "type": "error"
    },
    {
      "inputs": [
        {
          "internalType": "address",
          "name": "receiver",
          "type": "address"
        }
      ],
      "name": "ERC20InvalidReceiver",
      "type": "error"
    },
    {
      "inputs": [
        {
          "internalType": "address",
          "name": "sender",
          "type": "address"
        }
      ],
      "name": "ERC20InvalidSender",
      "type": "error"
    },
    {
      "inputs": [
        {
          "internalType": "address",
          "name": "spender",
          "type": "address"
        }
      ],
      "name": "ERC20InvalidSpender",
      "type": "error"
    },
    {
      "inputs": [
        {
          "internalType": "uint256",
          "name": "deadline",
          "type": "uint256"
        }
      ],
      "name": "ERC2612ExpiredSignature",
      "type": "error"
    },
    {
      "inputs": [
        {
          "internalType": "address",
          "name": "signer",
          "type": "address"
        },
        {
          "internalType": "address",
          "name": "owner",
          "type": "address"
        }
      ],
      "name": "ERC2612InvalidSigner",
      "type": "error"
    },
    {
      "inputs": [
        {
          "internalType": "address",
          "name": "account",
          "type": "address"
        },
        {
          "internalType": "uint256",
          "name": "currentNonce",
          "type": "uint256"
        }
      ],
      "name": "InvalidAccountNonce",
      "type": "error"
    },
    {
      "inputs": [],
      "name": "InvalidShortString",
      "type": "error"
    },
    {
      "inputs": [
        {
          "internalType": "address",
          "name": "owner",
          "type": "address"
        }
      ],
      "name": "OwnableInvalidOwner",
      "type": "error"
    },
    {
      "inputs": [
        {
          "internalType": "address",
          "name": "account",
          "type": "address"
        }
      ],
      "name": "OwnableUnauthorizedAccount",
      "type": "error"
    },
    {
      "inputs": [
        {
          "internalType": "string",
          "name": "str",
          "type": "string"
        }
      ],
      "name": "StringTooLong",
      "type": "error"
    },
    {
      "anonymous": false,
      "inputs": [
        {
          "indexed": true,
          "internalType": "address",
          "name": "owner",
          "type": "address"
        },
        {
          "indexed": true,
          "internalType": "address",
          "name": "spender",
          "type": "address"
        },
        {
          "indexed": false,
          "internalType": "uint256",
          "name": "value",
          "type": "uint256"
        }
      ],
      "name": "Approval",
      "type": "event"
    },
    {
      "anonymous": false,
      "inputs": [],
      "name": "EIP712DomainChanged",
      "type": "event"
    },
    {
      "anonymous": false,
      "inputs": [
        {
          "indexed": true,
          "internalType": "address",
          "name": "previousOwner",
          "type": "address"
        },
        {
          "indexed": true,
          "internalType": "address",
          "name": "newOwner",
          "type": "address"
        }
      ],
      "name": "OwnershipTransferred",
      "type": "event"
    },
    {
      "anonymous": false,
      "inputs": [
        {
          "indexed": true,
          "internalType": "address",
          "name": "from",
          "type": "address"
        },
        {
          "indexed": true,
          "internalType": "address",
          "name": "to",
          "type": "address"
        },
        {
          "indexed": false,
          "internalType": "uint256",
          "name": "value",
          "type": "uint256"
        }
      ],
      "name": "Transfer",
      "type": "event"
    },
    {
      "inputs": [],
      "name": "DOMAIN_SEPARATOR",
      "outputs": [
        {
          "internalType": "bytes32",
          "name": "",
          "type": "bytes32"
        }
      ],
      "stateMutability": "view",
      "type": "function"
    },
    {
      "inputs": [
        {
          "internalType": "address",
          "name": "owner",
          "type": "address"
        },
        {
          "internalType": "address",
          "name": "spender",
          "type": "address"
        }
      ],
      "name": "allowance",
      "outputs": [
        {
          "internalType": "uint256",
          "name": "",
          "type": "uint256"
        }
      ],
      "stateMutability": "view",
      "type": "function"
    },
    {
      "inputs": [
        {
          "internalType": "address",
          "name": "spender",
          "type": "address"
        },
        {
          "internalType": "uint256",
          "name": "value",
          "type": "uint256"
        }
      ],
      "name": "approve",
      "outputs": [
        {
          "internalType": "bool",
          "name": "",
          "type": "bool"
        }
      ],
      "stateMutability": "nonpayable",
      "type": "function"
    },
    {
      "inputs": [
        {
          "internalType": "address",
          "name": "account",
          "type": "address"
        }
      ],
      "name": "balanceOf",
      "outputs": [
        {
          "internalType": "uint256",
          "name": "",
          "type": "uint256"
        }
      ],
      "stateMutability": "view",
      "type": "function"
    },
    {
      "inputs": [],
      "name": "decimals",
      "outputs": [
        {
          "internalType": "uint8",
          "name": "",
          "type": "uint8"
        }
      ],
      "stateMutability": "view",
      "type": "function"
    },
    {
      "inputs": [],
      "name": "eip712Domain",
      "outputs": [
        {
          "internalType": "bytes1",
          "name": "fields",
          "type": "bytes1"
        },
        {
          "internalType": "string",
          "name": "name",
          "type": "string"
        },
        {
          "internalType": "string",
          "name": "version",
          "type": "string"
        },
        {
          "internalType": "uint256",
          "name": "chainId",
          "type": "uint256"
        },
        {
          "internalType": "address",
          "name": "verifyingContract",
          "type": "address"
        },
        {
          "internalType": "bytes32",
          "name": "salt",
          "type": "bytes32"
        },
        {
          "internalType": "uint256[]",
          "name": "extensions",
          "type": "uint256[]"
        }
      ],
      "stateMutability": "view",
      "type": "function"
    },
    {
      "inputs": [
        {
          "internalType": "address",
          "name": "forwarder",
          "type": "address"
        }
      ],
      "name": "isTrustedForwarder",
      "outputs": [
        {
          "internalType": "bool",
          "name": "",
          "type": "bool"
        }
      ],
      "stateMutability": "view",
      "type": "function"
    },
    {
      "inputs": [
        {
          "internalType": "address",
          "name": "to",
          "type": "address"
        },
        {
          "internalType": "uint256",
          "name": "amount",
          "type": "uint256"
        }
      ],
      "name": "mint",
      "outputs": [],
      "stateMutability": "nonpayable",
      "type": "function"
    },
    {
      "inputs": [],
      "name": "name",
      "outputs": [
        {
          "internalType": "string",
          "name": "",
          "type": "string"
        }
      ],
      "stateMutability": "view",
      "type": "function"
    },
    {
      "inputs": [
        {
          "internalType": "address",
          "name": "owner",
          "type": "address"
        }
      ],
      "name": "nonces",
      "outputs": [
        {
          "internalType": "uint256",
          "name": "",
          "type": "uint256"
        }
      ],
      "stateMutability": "view",
      "type": "function"
    },
    {
      "inputs": [],
      "name": "owner",
      "outputs": [
        {
          "internalType": "address",
          "name": "",
          "type": "address"
        }
      ],
      "stateMutability": "view",
      "type": "function"
    },
    {
      "inputs": [
        {
          "internalType": "address",
          "name": "owner",
          "type": "address"
        },
        {
          "internalType": "address",
          "name": "spender",
          "type": "address"
        },
        {
          "internalType": "uint256",
          "name": "value",
          "type": "uint256"
        },
        {
          "internalType": "uint256",
          "name": "deadline",
          "type": "uint256"
        },
        {
          "internalType": "uint8",
          "name": "v",
          "type": "uint8"
        },
        {
          "internalType": "bytes32",
          "name": "r",
          "type": "bytes32"
        },
        {
          "internalType": "bytes32",
          "name": "s",
          "type": "bytes32"
        }
      ],
      "name": "permit",
      "outputs": [],
      "stateMutability": "nonpayable",
      "type": "function"
    },
    {
      "inputs": [],
      "name": "renounceOwnership",
      "outputs": [],
      "stateMutability": "nonpayable",
      "type": "function"
    },
    {
      "inputs": [],
      "name": "symbol",
      "outputs": [
        {
          "internalType": "string",
          "name": "",
          "type": "string"
        }
      ],
      "stateMutability": "view",
      "type": "function"
    },
    {
      "inputs": [],
      "name": "totalSupply",
      "outputs": [
        {
          "internalType": "uint256",
          "name": "",
          "type": "uint256"
        }
      ],
      "stateMutability": "view",
      "type": "function"
    },
    {
      "inputs": [
        {
          "internalType": "address",
          "name": "to",
          "type": "address"
        },
        {
          "internalType": "uint256",
          "name": "value",
          "type": "uint256"
        }
      ],
      "name": "transfer",
      "outputs": [
        {
          "internalType": "bool",
          "name": "",
          "type": "bool"
        }
      ],
      "stateMutability": "nonpayable",
      "type": "function"
    },
    {
      "inputs": [
        {
          "internalType": "address",
          "name": "from",
          "type": "address"
        },
        {
          "internalType": "address",
          "name": "to",
          "type": "address"
        },
        {
          "internalType": "uint256",
          "name": "value",
          "type": "uint256"
        }
      ],
      "name": "transferFrom",
      "outputs": [
        {
          "internalType": "bool",
          "name": "",
          "type": "bool"
        }
      ],
      "stateMutability": "nonpayable",
      "type": "function"
    },
    {
      "inputs": [
        {
          "internalType": "address",
          "name": "newOwner",
          "type": "address"
        }
      ],
      "name": "transferOwnership",
      "outputs": [],
      "stateMutability": "nonpayable",
      "type": "function"
    },
    {
      "inputs": [],
      "name": "trustedForwarder",
      "outputs": [
        {
          "internalType": "address",
          "name": "",
          "type": "address"
        }
      ],
      "stateMutability": "view",
      "type": "function"
    }
  ],
  "bytecode": "0x6101806040523480156200001257600080fd5b50604051620032783803806200327883398181016040528101906200003891906200080f565b80336040518060400160405280600d81526020017f5365637572697479205553445400000000000000000000000000000000000000815250806040518060400160405280600181526020017f31000000000000000000000000000000000000000000000000000000000000008152506040518060400160405280600d81526020017f53656375726974792055534454000000000000000000000000000000000000008152506040518060400160405280600581526020017f7355534454000000000000000000000000000000000000000000000000000000815250816003908162000124919062000abb565b50806004908162000136919062000abb565b5050506200014f600583620002ed60201b90919060201c565b61012081815250506200016d600682620002ed60201b90919060201c565b6101408181525050818051906020012060e08181525050808051906020012061010081815250504660a08181525050620001ac6200034560201b60201c565b608081815250503073ffffffffffffffffffffffffffffffffffffffff1660c08173ffffffffffffffffffffffffffffffffffffffff1681525050505050600073ffffffffffffffffffffffffffffffffffffffff168173ffffffffffffffffffffffffffffffffffffffff16036200025f5760006040517f1e4fbdf700000000000000000000000000000000000000000000000000000000815260040162000256919062000bb3565b60405180910390fd5b6200027081620003a260201b60201c565b508073ffffffffffffffffffffffffffffffffffffffff166101608173ffffffffffffffffffffffffffffffffffffffff168152505050620002e633620002bc6200046860201b60201c565b600a620002ca919062000d60565b620f4240620002da919062000db1565b6200047160201b60201c565b506200106f565b600060208351101562000313576200030b83620004fe60201b60201c565b90506200033f565b8262000325836200056b60201b60201c565b600001908162000336919062000abb565b5060ff60001b90505b92915050565b60007f8b73c3c69bb8fe3d512ecc4cf759cc79239f7b179b0ffacaa9a75d522b39400f60e0516101005146306040516020016200038795949392919062000e28565b60405160208183030381529060405280519060200120905090565b6000600860009054906101000a900473ffffffffffffffffffffffffffffffffffffffff16905081600860006101000a81548173ffffffffffffffffffffffffffffffffffffffff021916908373ffffffffffffffffffffffffffffffffffffffff1602179055508173ffffffffffffffffffffffffffffffffffffffff168173ffffffffffffffffffffffffffffffffffffffff167f8be0079c531659141344cd1fd0a4f28419497f9722a3daafe3b4186f6b6457e060405160405180910390a35050565b60006012905090565b600073ffffffffffffffffffffffffffffffffffffffff168273ffffffffffffffffffffffffffffffffffffffff1603620004e65760006040517fec442f05000000000000000000000000000000000000000000000000000000008152600401620004dd919062000bb3565b60405180910390fd5b620004fa600083836200057560201b60201c565b5050565b600080829050601f815111156200054e57826040517f305a27a900000000000000000000000000000000000000000000000000000000815260040162000545919062000f14565b60405180910390fd5b8051816200055c9062000f6a565b60001c1760001b915050919050565b6000819050919050565b600073ffffffffffffffffffffffffffffffffffffffff168373ffffffffffffffffffffffffffffffffffffffff1603620005cb578060026000828254620005be919062000fda565b92505081905550620006a1565b60008060008573ffffffffffffffffffffffffffffffffffffffff1673ffffffffffffffffffffffffffffffffffffffff168152602001908152602001600020549050818110156200065a578381836040517fe450d38c000000000000000000000000000000000000000000000000000000008152600401620006519392919062001015565b60405180910390fd5b8181036000808673ffffffffffffffffffffffffffffffffffffffff1673ffffffffffffffffffffffffffffffffffffffff16815260200190815260200160002081905550505b600073ffffffffffffffffffffffffffffffffffffffff168273ffffffffffffffffffffffffffffffffffffffff1603620006ec578060026000828254039250508190555062000739565b806000808473ffffffffffffffffffffffffffffffffffffffff1673ffffffffffffffffffffffffffffffffffffffff168152602001908152602001600020600082825401925050819055505b8173ffffffffffffffffffffffffffffffffffffffff168373ffffffffffffffffffffffffffffffffffffffff167fddf252ad1be2c89b69c2b068fc378daa952ba7f163c4a11628f55a4df523b3ef8360405162000798919062001052565b60405180910390a3505050565b600080fd5b600073ffffffffffffffffffffffffffffffffffffffff82169050919050565b6000620007d782620007aa565b9050919050565b620007e981620007ca565b8114620007f557600080fd5b50565b6000815190506200080981620007de565b92915050565b600060208284031215620008285762000827620007a5565b5b60006200083884828501620007f8565b91505092915050565b600081519050919050565b7f4e487b7100000000000000000000000000000000000000000000000000000000600052604160045260246000fd5b7f4e487b7100000000000000000000000000000000000000000000000000000000600052602260045260246000fd5b60006002820490506001821680620008c357607f821691505b602082108103620008d957620008d86200087b565b5b50919050565b60008190508160005260206000209050919050565b60006020601f8301049050919050565b600082821b905092915050565b600060088302620009437fffffffffffffffffffffffffffffffffffffffffffffffffffffffffffffffff8262000904565b6200094f868362000904565b95508019841693508086168417925050509392505050565b6000819050919050565b6000819050919050565b60006200099c62000996620009908462000967565b62000971565b62000967565b9050919050565b6000819050919050565b620009b8836200097b565b620009d0620009c782620009a3565b84845462000911565b825550505050565b600090565b620009e7620009d8565b620009f4818484620009ad565b505050565b5b8181101562000a1c5762000a10600082620009dd565b600181019050620009fa565b5050565b601f82111562000a6b5762000a3581620008df565b62000a4084620008f4565b8101602085101562000a50578190505b62000a6862000a5f85620008f4565b830182620009f9565b50505b505050565b600082821c905092915050565b600062000a906000198460080262000a70565b1980831691505092915050565b600062000aab838362000a7d565b9150826002028217905092915050565b62000ac68262000841565b67ffffffffffffffff81111562000ae25762000ae16200084c565b5b62000aee8254620008aa565b62000afb82828562000a20565b600060209050601f83116001811462000b33576000841562000b1e578287015190505b62000b2a858262000a9d565b86555062000b9a565b601f19841662000b4386620008df565b60005b8281101562000b6d5784890151825560018201915060208501945060208101905062000b46565b8683101562000b8d578489015162000b89601f89168262000a7d565b8355505b6001600288020188555050505b505050505050565b62000bad81620007ca565b82525050565b600060208201905062000bca600083018462000ba2565b92915050565b7f4e487b7100000000000000000000000000000000000000000000000000000000600052601160045260246000fd5b60008160011c9050919050565b6000808291508390505b600185111562000c5e5780860481111562000c365762000c3562000bd0565b5b600185161562000c465780820291505b808102905062000c568562000bff565b945062000c16565b94509492505050565b60008262000c79576001905062000d4c565b8162000c89576000905062000d4c565b816001811462000ca2576002811462000cad5762000ce3565b600191505062000d4c565b60ff84111562000cc25762000cc162000bd0565b5b8360020a91508482111562000cdc5762000cdb62000bd0565b5b5062000d4c565b5060208310610133831016604e8410600b841016171562000d1d5782820a90508381111562000d175762000d1662000bd0565b5b62000d4c565b62000d2c848484600162000c0c565b9250905081840481111562000d465762000d4562000bd0565b5b81810290505b9392505050565b600060ff82169050919050565b600062000d6d8262000967565b915062000d7a8362000d53565b925062000da97fffffffffffffffffffffffffffffffffffffffffffffffffffffffffffffffff848462000c67565b905092915050565b600062000dbe8262000967565b915062000dcb8362000967565b925082820262000ddb8162000967565b9150828204841483151762000df55762000df462000bd0565b5b5092915050565b6000819050919050565b62000e118162000dfc565b82525050565b62000e228162000967565b82525050565b600060a08201905062000e3f600083018862000e06565b62000e4e602083018762000e06565b62000e5d604083018662000e06565b62000e6c606083018562000e17565b62000e7b608083018462000ba2565b9695505050505050565b600082825260208201905092915050565b60005b8381101562000eb657808201518184015260208101905062000e99565b60008484015250505050565b6000601f19601f8301169050919050565b600062000ee08262000841565b62000eec818562000e85565b935062000efe81856020860162000e96565b62000f098162000ec2565b840191505092915050565b6000602082019050818103600083015262000f30818462000ed3565b905092915050565b600081519050919050565b6000819050602082019050919050565b600062000f61825162000dfc565b80915050919050565b600062000f778262000f38565b8262000f838462000f43565b905062000f908162000f53565b9250602082101562000fd35762000fce7fffffffffffffffffffffffffffffffffffffffffffffffffffffffffffffffff8360200360080262000904565b831692505b5050919050565b600062000fe78262000967565b915062000ff48362000967565b92508282019050808211156200100f576200100e62000bd0565b5b92915050565b60006060820190506200102c600083018662000ba2565b6200103b602083018562000e17565b6200104a604083018462000e17565b949350505050565b600060208201905062001069600083018462000e17565b92915050565b60805160a05160c05160e051610100516101205161014051610160516121a3620010d5600039600061058501526000610e5601526000610e1b015260006113d7015260006113b601526000610b4701526000610b9d01526000610bc601526121a36000f3fe608060405234801561001057600080fd5b50600436106101215760003560e01c8063715018a6116100ad57806395d89b411161007157806395d89b4114610314578063a9059cbb14610332578063d505accf14610362578063dd62ed3e1461037e578063f2fde38b146103ae57610121565b8063715018a61461027a5780637da0a877146102845780637ecebe00146102a257806384b0196e146102d25780638da5cb5b146102f657610121565b8063313ce567116100f4578063313ce567146101c25780633644e515146101e057806340c10f19146101fe578063572b6c051461021a57806370a082311461024a57610121565b806306fdde0314610126578063095ea7b31461014457806318160ddd1461017457806323b872dd14610192575b600080fd5b61012e6103ca565b60405161013b91906118e4565b60405180910390f35b61015e6004803603810190610159919061199f565b61045c565b60405161016b91906119fa565b60405180910390f35b61017c61047f565b6040516101899190611a24565b60405180910390f35b6101ac60048036038101906101a79190611a3f565b610489565b6040516101b991906119fa565b60405180910390f35b6101ca6104b8565b6040516101d79190611aae565b60405180910390f35b6101e86104c1565b6040516101f59190611ae2565b60405180910390f35b6102186004803603810190610213919061199f565b6104d0565b005b610234600480360381019061022f9190611afd565b6104e6565b60405161024191906119fa565b60405180910390f35b610264600480360381019061025f9190611afd565b610525565b6040516102719190611a24565b60405180910390f35b61028261056d565b005b61028c610581565b6040516102999190611b39565b60405180910390f35b6102bc60048036038101906102b79190611afd565b6105a9565b6040516102c99190611a24565b60405180910390f35b6102da6105bb565b6040516102ed9796959493929190611c4d565b60405180910390f35b6102fe610665565b60405161030b9190611b39565b60405180910390f35b61031c61068f565b60405161032991906118e4565b60405180910390f35b61034c6004803603810190610347919061199f565b610721565b60405161035991906119fa565b60405180910390f35b61037c60048036038101906103779190611d29565b610744565b005b61039860048036038101906103939190611dcb565b61088c565b6040516103a59190611a24565b60405180910390f35b6103c860048036038101906103c39190611afd565b610913565b005b6060600380546103d990611e3a565b80601f016020809104026020016040519081016040528092919081815260200182805461040590611e3a565b80156104525780601f1061042757610100808354040283529160200191610452565b820191906000526020600020905b81548152906001019060200180831161043557829003601f168201915b5050505050905090565b600080610467610999565b90506104748185856109a8565b600191505092915050565b6000600254905090565b600080610494610999565b90506104a18582856109ba565b6104ac858585610a4f565b60019150509392505050565b60006012905090565b60006104cb610b43565b905090565b6104d8610bfa565b6104e28282610c81565b5050565b60006104f0610581565b73ffffffffffffffffffffffffffffffffffffffff168273ffffffffffffffffffffffffffffffffffffffff16149050919050565b60008060008373ffffffffffffffffffffffffffffffffffffffff1673ffffffffffffffffffffffffffffffffffffffff168152602001908152602001600020549050919050565b610575610bfa565b61057f6000610d03565b565b60007f0000000000000000000000000000000000000000000000000000000000000000905090565b60006105b482610dc9565b9050919050565b6000606080600080600060606105cf610e12565b6105d7610e4d565b46306000801b600067ffffffffffffffff8111156105f8576105f7611e6b565b5b6040519080825280602002602001820160405280156106265781602001602082028036833780820191505090505b507f0f00000000000000000000000000000000000000000000000000000000000000959493929190965096509650965096509650965090919293949596565b6000600860009054906101000a900473ffffffffffffffffffffffffffffffffffffffff16905090565b60606004805461069e90611e3a565b80601f01602080910402602001604051908101604052809291908181526020018280546106ca90611e3a565b80156107175780601f106106ec57610100808354040283529160200191610717565b820191906000526020600020905b8154815290600101906020018083116106fa57829003601f168201915b5050505050905090565b60008061072c610999565b9050610739818585610a4f565b600191505092915050565b8342111561078957836040517f627913020000000000000000000000000000000000000000000000000000000081526004016107809190611a24565b60405180910390fd5b60007f6e71edae12b1b97f4d1f60370fef10105fa2faae0126114a169c64845d6126c98888886107b88c610e88565b896040516020016107ce96959493929190611e9a565b60405160208183030381529060405280519060200120905060006107f182610edf565b9050600061080182878787610ef9565b90508973ffffffffffffffffffffffffffffffffffffffff168173ffffffffffffffffffffffffffffffffffffffff161461087557808a6040517f4b800e4600000000000000000000000000000000000000000000000000000000815260040161086c929190611efb565b60405180910390fd5b6108808a8a8a6109a8565b50505050505050505050565b6000600160008473ffffffffffffffffffffffffffffffffffffffff1673ffffffffffffffffffffffffffffffffffffffff16815260200190815260200160002060008373ffffffffffffffffffffffffffffffffffffffff1673ffffffffffffffffffffffffffffffffffffffff16815260200190815260200160002054905092915050565b61091b610bfa565b600073ffffffffffffffffffffffffffffffffffffffff168173ffffffffffffffffffffffffffffffffffffffff160361098d5760006040517f1e4fbdf70000000000000000000000000000000000000000000000000000000081526004016109849190611b39565b60405180910390fd5b61099681610d03565b50565b60006109a3610f29565b905090565b6109b58383836001610f95565b505050565b60006109c6848461088c565b90507fffffffffffffffffffffffffffffffffffffffffffffffffffffffffffffffff811015610a495781811015610a39578281836040517ffb8f41b2000000000000000000000000000000000000000000000000000000008152600401610a3093929190611f24565b60405180910390fd5b610a4884848484036000610f95565b5b50505050565b600073ffffffffffffffffffffffffffffffffffffffff168373ffffffffffffffffffffffffffffffffffffffff1603610ac15760006040517f96c6fd1e000000000000000000000000000000000000000000000000000000008152600401610ab89190611b39565b60405180910390fd5b600073ffffffffffffffffffffffffffffffffffffffff168273ffffffffffffffffffffffffffffffffffffffff1603610b335760006040517fec442f05000000000000000000000000000000000000000000000000000000008152600401610b2a9190611b39565b60405180910390fd5b610b3e83838361116c565b505050565b60007f000000000000000000000000000000000000000000000000000000000000000073ffffffffffffffffffffffffffffffffffffffff163073ffffffffffffffffffffffffffffffffffffffff16148015610bbf57507f000000000000000000000000000000000000000000000000000000000000000046145b15610bec577f00000000000000000000000000000000000000000000000000000000000000009050610bf7565b610bf4611391565b90505b90565b610c02610999565b73ffffffffffffffffffffffffffffffffffffffff16610c20610665565b73ffffffffffffffffffffffffffffffffffffffff1614610c7f57610c43610999565b6040517f118cdaa7000000000000000000000000000000000000000000000000000000008152600401610c769190611b39565b60405180910390fd5b565b600073ffffffffffffffffffffffffffffffffffffffff168273ffffffffffffffffffffffffffffffffffffffff1603610cf35760006040517fec442f05000000000000000000000000000000000000000000000000000000008152600401610cea9190611b39565b60405180910390fd5b610cff6000838361116c565b5050565b6000600860009054906101000a900473ffffffffffffffffffffffffffffffffffffffff16905081600860006101000a81548173ffffffffffffffffffffffffffffffffffffffff021916908373ffffffffffffffffffffffffffffffffffffffff1602179055508173ffffffffffffffffffffffffffffffffffffffff168173ffffffffffffffffffffffffffffffffffffffff167f8be0079c531659141344cd1fd0a4f28419497f9722a3daafe3b4186f6b6457e060405160405180910390a35050565b6000600760008373ffffffffffffffffffffffffffffffffffffffff1673ffffffffffffffffffffffffffffffffffffffff168152602001908152602001600020549050919050565b6060610e4860057f000000000000000000000000000000000000000000000000000000000000000061142790919063ffffffff16565b905090565b6060610e8360067f000000000000000000000000000000000000000000000000000000000000000061142790919063ffffffff16565b905090565b6000600760008373ffffffffffffffffffffffffffffffffffffffff1673ffffffffffffffffffffffffffffffffffffffff1681526020019081526020016000206000815480929190600101919050559050919050565b6000610ef2610eec610b43565b836114d7565b9050919050565b600080600080610f0b88888888611518565b925092509250610f1b828261160c565b829350505050949350505050565b600080600036905090506000610f3d611770565b9050808210158015610f545750610f53336104e6565b5b15610f8557600036828403908092610f6e93929190611f65565b90610f799190611fe4565b60601c92505050610f92565b610f8d61177f565b925050505b90565b600073ffffffffffffffffffffffffffffffffffffffff168473ffffffffffffffffffffffffffffffffffffffff16036110075760006040517fe602df05000000000000000000000000000000000000000000000000000000008152600401610ffe9190611b39565b60405180910390fd5b600073ffffffffffffffffffffffffffffffffffffffff168373ffffffffffffffffffffffffffffffffffffffff16036110795760006040517f94280d620000000000000000000000000000000000000000000000000000000081526004016110709190611b39565b60405180910390fd5b81600160008673ffffffffffffffffffffffffffffffffffffffff1673ffffffffffffffffffffffffffffffffffffffff16815260200190815260200160002060008573ffffffffffffffffffffffffffffffffffffffff1673ffffffffffffffffffffffffffffffffffffffff168152602001908152602001600020819055508015611166578273ffffffffffffffffffffffffffffffffffffffff168473ffffffffffffffffffffffffffffffffffffffff167f8c5be1e5ebec7d5bd14f71427d1e84f3dd0314c0f7b2291e5b200ac8c7c3b9258460405161115d9190611a24565b60405180910390a35b50505050565b600073ffffffffffffffffffffffffffffffffffffffff168373ffffffffffffffffffffffffffffffffffffffff16036111be5780600260008282546111b29190612072565b92505081905550611291565b60008060008573ffffffffffffffffffffffffffffffffffffffff1673ffffffffffffffffffffffffffffffffffffffff1681526020019081526020016000205490508181101561124a578381836040517fe450d38c00000000000000000000000000000000000000000000000000000000815260040161124193929190611f24565b60405180910390fd5b8181036000808673ffffffffffffffffffffffffffffffffffffffff1673ffffffffffffffffffffffffffffffffffffffff16815260200190815260200160002081905550505b600073ffffffffffffffffffffffffffffffffffffffff168273ffffffffffffffffffffffffffffffffffffffff16036112da5780600260008282540392505081905550611327565b806000808473ffffffffffffffffffffffffffffffffffffffff1673ffffffffffffffffffffffffffffffffffffffff168152602001908152602001600020600082825401925050819055505b8173ffffffffffffffffffffffffffffffffffffffff168373ffffffffffffffffffffffffffffffffffffffff167fddf252ad1be2c89b69c2b068fc378daa952ba7f163c4a11628f55a4df523b3ef836040516113849190611a24565b60405180910390a3505050565b60007f8b73c3c69bb8fe3d512ecc4cf759cc79239f7b179b0ffacaa9a75d522b39400f7f00000000000000000000000000000000000000000000000000000000000000007f0000000000000000000000000000000000000000000000000000000000000000463060405160200161140c9594939291906120a6565b60405160208183030381529060405280519060200120905090565b606060ff60001b83146114445761143d83611787565b90506114d1565b81805461145090611e3a565b80601f016020809104026020016040519081016040528092919081815260200182805461147c90611e3a565b80156114c95780601f1061149e576101008083540402835291602001916114c9565b820191906000526020600020905b8154815290600101906020018083116114ac57829003601f168201915b505050505090505b92915050565b60006040517f190100000000000000000000000000000000000000000000000000000000000081528360028201528260228201526042812091505092915050565b60008060007f7fffffffffffffffffffffffffffffff5d576e7357a4501ddfe92f46681b20a08460001c1115611558576000600385925092509250611602565b60006001888888886040516000815260200160405260405161157d94939291906120f9565b6020604051602081039080840390855afa15801561159f573d6000803e3d6000fd5b505050602060405103519050600073ffffffffffffffffffffffffffffffffffffffff168173ffffffffffffffffffffffffffffffffffffffff16036115f357600060016000801b93509350935050611602565b8060008060001b935093509350505b9450945094915050565b600060038111156116205761161f61213e565b5b8260038111156116335761163261213e565b5b031561176c576001600381111561164d5761164c61213e565b5b8260038111156116605761165f61213e565b5b03611697576040517ff645eedf00000000000000000000000000000000000000000000000000000000815260040160405180910390fd5b600260038111156116ab576116aa61213e565b5b8260038111156116be576116bd61213e565b5b03611703578060001c6040517ffce698f70000000000000000000000000000000000000000000000000000000081526004016116fa9190611a24565b60405180910390fd5b6003808111156117165761171561213e565b5b8260038111156117295761172861213e565b5b0361176b57806040517fd78bce0c0000000000000000000000000000000000000000000000000000000081526004016117629190611ae2565b60405180910390fd5b5b5050565b600061177a6117fb565b905090565b600033905090565b6060600061179483611804565b90506000602067ffffffffffffffff8111156117b3576117b2611e6b565b5b6040519080825280601f01601f1916602001820160405280156117e55781602001600182028036833780820191505090505b5090508181528360208201528092505050919050565b60006014905090565b60008060ff8360001c169050601f81111561184b576040517fb3512b0c00000000000000000000000000000000000000000000000000000000815260040160405180910390fd5b80915050919050565b600081519050919050565b600082825260208201905092915050565b60005b8381101561188e578082015181840152602081019050611873565b60008484015250505050565b6000601f19601f8301169050919050565b60006118b682611854565b6118c0818561185f565b93506118d0818560208601611870565b6118d98161189a565b840191505092915050565b600060208201905081810360008301526118fe81846118ab565b905092915050565b600080fd5b600073ffffffffffffffffffffffffffffffffffffffff82169050919050565b60006119368261190b565b9050919050565b6119468161192b565b811461195157600080fd5b50565b6000813590506119638161193d565b92915050565b6000819050919050565b61197c81611969565b811461198757600080fd5b50565b60008135905061199981611973565b92915050565b600080604083850312156119b6576119b5611906565b5b60006119c485828601611954565b92505060206119d58582860161198a565b9150509250929050565b60008115159050919050565b6119f4816119df565b82525050565b6000602082019050611a0f60008301846119eb565b92915050565b611a1e81611969565b82525050565b6000602082019050611a396000830184611a15565b92915050565b600080600060608486031215611a5857611a57611906565b5b6000611a6686828701611954565b9350506020611a7786828701611954565b9250506040611a888682870161198a565b9150509250925092565b600060ff82169050919050565b611aa881611a92565b82525050565b6000602082019050611ac36000830184611a9f565b92915050565b6000819050919050565b611adc81611ac9565b82525050565b6000602082019050611af76000830184611ad3565b92915050565b600060208284031215611b1357611b12611906565b5b6000611b2184828501611954565b91505092915050565b611b338161192b565b82525050565b6000602082019050611b4e6000830184611b2a565b92915050565b60007fff0000000000000000000000000000000000000000000000000000000000000082169050919050565b611b8981611b54565b82525050565b600081519050919050565b600082825260208201905092915050565b6000819050602082019050919050565b611bc481611969565b82525050565b6000611bd68383611bbb565b60208301905092915050565b6000602082019050919050565b6000611bfa82611b8f565b611c048185611b9a565b9350611c0f83611bab565b8060005b83811015611c40578151611c278882611bca565b9750611c3283611be2565b925050600181019050611c13565b5085935050505092915050565b600060e082019050611c62600083018a611b80565b8181036020830152611c7481896118ab565b90508181036040830152611c8881886118ab565b9050611c976060830187611a15565b611ca46080830186611b2a565b611cb160a0830185611ad3565b81810360c0830152611cc38184611bef565b905098975050505050505050565b611cda81611a92565b8114611ce557600080fd5b50565b600081359050611cf781611cd1565b92915050565b611d0681611ac9565b8114611d1157600080fd5b50565b600081359050611d2381611cfd565b92915050565b600080600080600080600060e0888a031215611d4857611d47611906565b5b6000611d568a828b01611954565b9750506020611d678a828b01611954565b9650506040611d788a828b0161198a565b9550506060611d898a828b0161198a565b9450506080611d9a8a828b01611ce8565b93505060a0611dab8a828b01611d14565b92505060c0611dbc8a828b01611d14565b91505092959891949750929550565b60008060408385031215611de257611de1611906565b5b6000611df085828601611954565b9250506020611e0185828601611954565b9150509250929050565b7f4e487b7100000000000000000000000000000000000000000000000000000000600052602260045260246000fd5b60006002820490506001821680611e5257607f821691505b602082108103611e6557611e64611e0b565b5b50919050565b7f4e487b7100000000000000000000000000000000000000000000000000000000600052604160045260246000fd5b600060c082019050611eaf6000830189611ad3565b611ebc6020830188611b2a565b611ec96040830187611b2a565b611ed66060830186611a15565b611ee36080830185611a15565b611ef060a0830184611a15565b979650505050505050565b6000604082019050611f106000830185611b2a565b611f1d6020830184611b2a565b9392505050565b6000606082019050611f396000830186611b2a565b611f466020830185611a15565b611f536040830184611a15565b949350505050565b600080fd5b600080fd5b60008085851115611f7957611f78611f5b565b5b83861115611f8a57611f89611f60565b5b6001850283019150848603905094509492505050565b600082905092915050565b60007fffffffffffffffffffffffffffffffffffffffff00000000000000000000000082169050919050565b600082821b905092915050565b6000611ff08383611fa0565b82611ffb8135611fab565b9250601482101561203b576120367fffffffffffffffffffffffffffffffffffffffff00000000000000000000000083601403600802611fd7565b831692505b505092915050565b7f4e487b7100000000000000000000000000000000000000000000000000000000600052601160045260246000fd5b600061207d82611969565b915061208883611969565b92508282019050808211156120a05761209f612043565b5b92915050565b600060a0820190506120bb6000830188611ad3565b6120c86020830187611ad3565b6120d56040830186611ad3565b6120e26060830185611a15565b6120ef6080830184611b2a565b9695505050505050565b600060808201905061210e6000830187611ad3565b61211b6020830186611a9f565b6121286040830185611ad3565b6121356060830184611ad3565b95945050505050565b7f4e487b7100000000000000000000000000000000000000000000000000000000600052602160045260246000fdfea2646970667358221220078177ce4146c3ce48f16c1ec1638b7e8964b1f6801ee2c80f20514443e3d36564736f6c63430008140033",
  "linkReferences": {},
  "deployedLinkReferences": {}
}